{
  "_format": "hh-sol-artifact-1",
  "contractName": "ArtistToken",
  "sourceName": "contracts/ArtistToken.sol",
  "abi": [
    {
      "inputs": [
        {
          "internalType": "string",
          "name": "name",
          "type": "string"
        },
        {
          "internalType": "string",
          "name": "symbol",
          "type": "string"
        },
        {
          "internalType": "address",
          "name": "_artist",
          "type": "address"
        },
        {
          "internalType": "address",
          "name": "_factory",
          "type": "address"
        },
        {
          "internalType": "address",
          "name": "_mainToken",
          "type": "address"
        },
        {
          "internalType": "uint256",
          "name": "_maxSupply",
          "type": "uint256"
        },
        {
          "internalType": "uint256",
          "name": "_initialSwapRate",
          "type": "uint256"
        }
      ],
      "stateMutability": "nonpayable",
      "type": "constructor"
    },
    {
      "anonymous": false,
      "inputs": [
        {
          "indexed": true,
          "internalType": "address",
          "name": "owner",
          "type": "address"
        },
        {
          "indexed": true,
          "internalType": "address",
          "name": "spender",
          "type": "address"
        },
        {
          "indexed": false,
          "internalType": "uint256",
          "name": "value",
          "type": "uint256"
        }
      ],
      "name": "Approval",
      "type": "event"
    },
    {
      "anonymous": false,
      "inputs": [
        {
          "indexed": true,
          "internalType": "address",
          "name": "account",
          "type": "address"
        },
        {
          "indexed": false,
          "internalType": "bool",
          "name": "status",
          "type": "bool"
        }
      ],
      "name": "BlacklistUpdated",
      "type": "event"
    },
    {
      "anonymous": false,
      "inputs": [
        {
          "indexed": false,
          "internalType": "address",
          "name": "account",
          "type": "address"
        }
      ],
      "name": "Paused",
      "type": "event"
    },
    {
      "anonymous": false,
      "inputs": [
        {
          "indexed": true,
          "internalType": "bytes32",
          "name": "role",
          "type": "bytes32"
        },
        {
          "indexed": true,
          "internalType": "bytes32",
          "name": "previousAdminRole",
          "type": "bytes32"
        },
        {
          "indexed": true,
          "internalType": "bytes32",
          "name": "newAdminRole",
          "type": "bytes32"
        }
      ],
      "name": "RoleAdminChanged",
      "type": "event"
    },
    {
      "anonymous": false,
      "inputs": [
        {
          "indexed": true,
          "internalType": "bytes32",
          "name": "role",
          "type": "bytes32"
        },
        {
          "indexed": true,
          "internalType": "address",
          "name": "account",
          "type": "address"
        },
        {
          "indexed": true,
          "internalType": "address",
          "name": "sender",
          "type": "address"
        }
      ],
      "name": "RoleGranted",
      "type": "event"
    },
    {
      "anonymous": false,
      "inputs": [
        {
          "indexed": true,
          "internalType": "bytes32",
          "name": "role",
          "type": "bytes32"
        },
        {
          "indexed": true,
          "internalType": "address",
          "name": "account",
          "type": "address"
        },
        {
          "indexed": true,
          "internalType": "address",
          "name": "sender",
          "type": "address"
        }
      ],
      "name": "RoleRevoked",
      "type": "event"
    },
    {
      "anonymous": false,
      "inputs": [
        {
          "indexed": false,
          "internalType": "uint256",
          "name": "newRate",
          "type": "uint256"
        }
      ],
      "name": "SwapRateUpdated",
      "type": "event"
    },
    {
      "anonymous": false,
      "inputs": [
        {
          "indexed": true,
          "internalType": "address",
          "name": "from",
          "type": "address"
        },
        {
          "indexed": true,
          "internalType": "address",
          "name": "to",
          "type": "address"
        },
        {
          "indexed": false,
          "internalType": "uint256",
          "name": "value",
          "type": "uint256"
        }
      ],
      "name": "Transfer",
      "type": "event"
    },
    {
      "anonymous": false,
      "inputs": [
        {
          "indexed": false,
          "internalType": "bool",
          "name": "restricted",
          "type": "bool"
        }
      ],
      "name": "TransferRestrictionUpdated",
      "type": "event"
    },
    {
      "anonymous": false,
      "inputs": [
        {
          "indexed": false,
          "internalType": "address",
          "name": "account",
          "type": "address"
        }
      ],
      "name": "Unpaused",
      "type": "event"
    },
    {
      "anonymous": false,
      "inputs": [
        {
          "indexed": true,
          "internalType": "address",
          "name": "account",
          "type": "address"
        },
        {
          "indexed": false,
          "internalType": "bool",
          "name": "status",
          "type": "bool"
        }
      ],
      "name": "WhitelistUpdated",
      "type": "event"
    },
    {
      "inputs": [],
      "name": "ARTIST_ROLE",
      "outputs": [
        {
          "internalType": "bytes32",
          "name": "",
          "type": "bytes32"
        }
      ],
      "stateMutability": "view",
      "type": "function"
    },
    {
      "inputs": [],
      "name": "DEFAULT_ADMIN_ROLE",
      "outputs": [
        {
          "internalType": "bytes32",
          "name": "",
          "type": "bytes32"
        }
      ],
      "stateMutability": "view",
      "type": "function"
    },
    {
      "inputs": [],
      "name": "PAUSER_ROLE",
      "outputs": [
        {
          "internalType": "bytes32",
          "name": "",
          "type": "bytes32"
        }
      ],
      "stateMutability": "view",
      "type": "function"
    },
    {
      "inputs": [],
      "name": "WHITELIST_MANAGER_ROLE",
      "outputs": [
        {
          "internalType": "bytes32",
          "name": "",
          "type": "bytes32"
        }
      ],
      "stateMutability": "view",
      "type": "function"
    },
    {
      "inputs": [
        {
          "internalType": "address",
          "name": "owner",
          "type": "address"
        },
        {
          "internalType": "address",
          "name": "spender",
          "type": "address"
        }
      ],
      "name": "allowance",
      "outputs": [
        {
          "internalType": "uint256",
          "name": "",
          "type": "uint256"
        }
      ],
      "stateMutability": "view",
      "type": "function"
    },
    {
      "inputs": [
        {
          "internalType": "address",
          "name": "spender",
          "type": "address"
        },
        {
          "internalType": "uint256",
          "name": "amount",
          "type": "uint256"
        }
      ],
      "name": "approve",
      "outputs": [
        {
          "internalType": "bool",
          "name": "",
          "type": "bool"
        }
      ],
      "stateMutability": "nonpayable",
      "type": "function"
    },
    {
      "inputs": [],
      "name": "artist",
      "outputs": [
        {
          "internalType": "address",
          "name": "",
          "type": "address"
        }
      ],
      "stateMutability": "view",
      "type": "function"
    },
    {
      "inputs": [
        {
          "internalType": "address",
          "name": "account",
          "type": "address"
        }
      ],
      "name": "balanceOf",
      "outputs": [
        {
          "internalType": "uint256",
          "name": "",
          "type": "uint256"
        }
      ],
      "stateMutability": "view",
      "type": "function"
    },
    {
      "inputs": [
        {
          "internalType": "address",
          "name": "",
          "type": "address"
        }
      ],
      "name": "blacklist",
      "outputs": [
        {
          "internalType": "bool",
          "name": "",
          "type": "bool"
        }
      ],
      "stateMutability": "view",
      "type": "function"
    },
    {
      "inputs": [
        {
          "internalType": "uint256",
          "name": "amount",
          "type": "uint256"
        }
      ],
      "name": "burn",
      "outputs": [],
      "stateMutability": "nonpayable",
      "type": "function"
    },
    {
      "inputs": [
        {
          "internalType": "address",
          "name": "account",
          "type": "address"
        },
        {
          "internalType": "uint256",
          "name": "amount",
          "type": "uint256"
        }
      ],
      "name": "burnFrom",
      "outputs": [],
      "stateMutability": "nonpayable",
      "type": "function"
    },
    {
      "inputs": [],
      "name": "decimals",
      "outputs": [
        {
          "internalType": "uint8",
          "name": "",
          "type": "uint8"
        }
      ],
      "stateMutability": "view",
      "type": "function"
    },
    {
      "inputs": [
        {
          "internalType": "address",
          "name": "spender",
          "type": "address"
        },
        {
          "internalType": "uint256",
          "name": "subtractedValue",
          "type": "uint256"
        }
      ],
      "name": "decreaseAllowance",
      "outputs": [
        {
          "internalType": "bool",
          "name": "",
          "type": "bool"
        }
      ],
      "stateMutability": "nonpayable",
      "type": "function"
    },
    {
      "inputs": [],
      "name": "factory",
      "outputs": [
        {
          "internalType": "address",
          "name": "",
          "type": "address"
        }
      ],
      "stateMutability": "view",
      "type": "function"
    },
    {
      "inputs": [
        {
          "internalType": "bytes32",
          "name": "role",
          "type": "bytes32"
        }
      ],
      "name": "getRoleAdmin",
      "outputs": [
        {
          "internalType": "bytes32",
          "name": "",
          "type": "bytes32"
        }
      ],
      "stateMutability": "view",
      "type": "function"
    },
    {
      "inputs": [],
      "name": "getTokenInfo",
      "outputs": [
        {
          "internalType": "string",
          "name": "tokenName",
          "type": "string"
        },
        {
          "internalType": "string",
          "name": "tokenSymbol",
          "type": "string"
        },
        {
          "internalType": "address",
          "name": "tokenArtist",
          "type": "address"
        },
        {
          "internalType": "uint256",
          "name": "tokenMaxSupply",
          "type": "uint256"
        },
        {
          "internalType": "uint256",
          "name": "tokenSwapRate",
          "type": "uint256"
        },
        {
          "internalType": "bool",
          "name": "tokenTransferRestricted",
          "type": "bool"
        },
        {
          "internalType": "bool",
          "name": "tokenSwapEnabled",
          "type": "bool"
        }
      ],
      "stateMutability": "view",
      "type": "function"
    },
    {
      "inputs": [
        {
          "internalType": "bytes32",
          "name": "role",
          "type": "bytes32"
        },
        {
          "internalType": "address",
          "name": "account",
          "type": "address"
        }
      ],
      "name": "grantRole",
      "outputs": [],
      "stateMutability": "nonpayable",
      "type": "function"
    },
    {
      "inputs": [
        {
          "internalType": "bytes32",
          "name": "role",
          "type": "bytes32"
        },
        {
          "internalType": "address",
          "name": "account",
          "type": "address"
        }
      ],
      "name": "hasRole",
      "outputs": [
        {
          "internalType": "bool",
          "name": "",
          "type": "bool"
        }
      ],
      "stateMutability": "view",
      "type": "function"
    },
    {
      "inputs": [
        {
          "internalType": "address",
          "name": "spender",
          "type": "address"
        },
        {
          "internalType": "uint256",
          "name": "addedValue",
          "type": "uint256"
        }
      ],
      "name": "increaseAllowance",
      "outputs": [
        {
          "internalType": "bool",
          "name": "",
          "type": "bool"
        }
      ],
      "stateMutability": "nonpayable",
      "type": "function"
    },
    {
      "inputs": [],
      "name": "mainToken",
      "outputs": [
        {
          "internalType": "address",
          "name": "",
          "type": "address"
        }
      ],
      "stateMutability": "view",
      "type": "function"
    },
    {
      "inputs": [],
      "name": "maxSupply",
      "outputs": [
        {
          "internalType": "uint256",
          "name": "",
          "type": "uint256"
        }
      ],
      "stateMutability": "view",
      "type": "function"
    },
    {
      "inputs": [
        {
          "internalType": "address",
          "name": "to",
          "type": "address"
        },
        {
          "internalType": "uint256",
          "name": "amount",
          "type": "uint256"
        }
      ],
      "name": "mintByArtist",
      "outputs": [],
      "stateMutability": "nonpayable",
      "type": "function"
    },
    {
      "inputs": [
        {
          "internalType": "address",
          "name": "to",
          "type": "address"
        },
        {
          "internalType": "uint256",
          "name": "amount",
          "type": "uint256"
        }
      ],
      "name": "mintByFactory",
      "outputs": [],
      "stateMutability": "nonpayable",
      "type": "function"
    },
    {
      "inputs": [],
      "name": "name",
      "outputs": [
        {
          "internalType": "string",
          "name": "",
          "type": "string"
        }
      ],
      "stateMutability": "view",
      "type": "function"
    },
    {
      "inputs": [],
      "name": "pause",
      "outputs": [],
      "stateMutability": "nonpayable",
      "type": "function"
    },
    {
      "inputs": [],
      "name": "paused",
      "outputs": [
        {
          "internalType": "bool",
          "name": "",
          "type": "bool"
        }
      ],
      "stateMutability": "view",
      "type": "function"
    },
    {
      "inputs": [
        {
          "internalType": "bytes32",
          "name": "role",
          "type": "bytes32"
        },
        {
          "internalType": "address",
          "name": "account",
          "type": "address"
        }
      ],
      "name": "renounceRole",
      "outputs": [],
      "stateMutability": "nonpayable",
      "type": "function"
    },
    {
      "inputs": [
        {
          "internalType": "bytes32",
          "name": "role",
          "type": "bytes32"
        },
        {
          "internalType": "address",
          "name": "account",
          "type": "address"
        }
      ],
      "name": "revokeRole",
      "outputs": [],
      "stateMutability": "nonpayable",
      "type": "function"
    },
    {
      "inputs": [
        {
          "internalType": "bool",
          "name": "enabled",
          "type": "bool"
        }
      ],
      "name": "setSwapEnabled",
      "outputs": [],
      "stateMutability": "nonpayable",
      "type": "function"
    },
    {
      "inputs": [
        {
          "internalType": "bool",
          "name": "restricted",
          "type": "bool"
        }
      ],
      "name": "setTransferRestriction",
      "outputs": [],
      "stateMutability": "nonpayable",
      "type": "function"
    },
    {
      "inputs": [
        {
          "internalType": "bytes4",
          "name": "interfaceId",
          "type": "bytes4"
        }
      ],
      "name": "supportsInterface",
      "outputs": [
        {
          "internalType": "bool",
          "name": "",
          "type": "bool"
        }
      ],
      "stateMutability": "view",
      "type": "function"
    },
    {
      "inputs": [],
      "name": "swapEnabled",
      "outputs": [
        {
          "internalType": "bool",
          "name": "",
          "type": "bool"
        }
      ],
      "stateMutability": "view",
      "type": "function"
    },
    {
      "inputs": [],
      "name": "swapRate",
      "outputs": [
        {
          "internalType": "uint256",
          "name": "",
          "type": "uint256"
        }
      ],
      "stateMutability": "view",
      "type": "function"
    },
    {
      "inputs": [],
      "name": "symbol",
      "outputs": [
        {
          "internalType": "string",
          "name": "",
          "type": "string"
        }
      ],
      "stateMutability": "view",
      "type": "function"
    },
    {
      "inputs": [],
      "name": "totalSupply",
      "outputs": [
        {
          "internalType": "uint256",
          "name": "",
          "type": "uint256"
        }
      ],
      "stateMutability": "view",
      "type": "function"
    },
    {
      "inputs": [
        {
          "internalType": "address",
          "name": "to",
          "type": "address"
        },
        {
          "internalType": "uint256",
          "name": "amount",
          "type": "uint256"
        }
      ],
      "name": "transfer",
      "outputs": [
        {
          "internalType": "bool",
          "name": "",
          "type": "bool"
        }
      ],
      "stateMutability": "nonpayable",
      "type": "function"
    },
    {
      "inputs": [
        {
          "internalType": "address",
          "name": "from",
          "type": "address"
        },
        {
          "internalType": "address",
          "name": "to",
          "type": "address"
        },
        {
          "internalType": "uint256",
          "name": "amount",
          "type": "uint256"
        }
      ],
      "name": "transferFrom",
      "outputs": [
        {
          "internalType": "bool",
          "name": "",
          "type": "bool"
        }
      ],
      "stateMutability": "nonpayable",
      "type": "function"
    },
    {
      "inputs": [],
      "name": "transferRestricted",
      "outputs": [
        {
          "internalType": "bool",
          "name": "",
          "type": "bool"
        }
      ],
      "stateMutability": "view",
      "type": "function"
    },
    {
      "inputs": [],
      "name": "unpause",
      "outputs": [],
      "stateMutability": "nonpayable",
      "type": "function"
    },
    {
      "inputs": [
        {
          "internalType": "address",
          "name": "account",
          "type": "address"
        },
        {
          "internalType": "bool",
          "name": "status",
          "type": "bool"
        }
      ],
      "name": "updateBlacklist",
      "outputs": [],
      "stateMutability": "nonpayable",
      "type": "function"
    },
    {
      "inputs": [
        {
          "internalType": "uint256",
          "name": "newRate",
          "type": "uint256"
        }
      ],
      "name": "updateSwapRate",
      "outputs": [],
      "stateMutability": "nonpayable",
      "type": "function"
    },
    {
      "inputs": [
        {
          "internalType": "address",
          "name": "account",
          "type": "address"
        },
        {
          "internalType": "bool",
          "name": "status",
          "type": "bool"
        }
      ],
      "name": "updateWhitelist",
      "outputs": [],
      "stateMutability": "nonpayable",
      "type": "function"
    },
    {
      "inputs": [
        {
          "internalType": "address[]",
          "name": "accounts",
          "type": "address[]"
        },
        {
          "internalType": "bool",
          "name": "status",
          "type": "bool"
        }
      ],
      "name": "updateWhitelistBatch",
      "outputs": [],
      "stateMutability": "nonpayable",
      "type": "function"
    },
    {
      "inputs": [
        {
          "internalType": "address",
          "name": "",
          "type": "address"
        }
      ],
      "name": "whitelist",
      "outputs": [
        {
          "internalType": "bool",
          "name": "",
          "type": "bool"
        }
      ],
      "stateMutability": "view",
      "type": "function"
    }
  ],
  "bytecode": "0x610100604052600a805461ffff19166101011790553480156200002157600080fd5b50604051620027ca380380620027ca8339810160408190526200004491620005fe565b8686600362000054838262000741565b50600462000063828262000741565b50506006805460ff19169055506001600160a01b0380861660805284811660a052831660c05260e08290526007819055620000a0600085620001cc565b620000cc7f877a78dc988c0ec5f58453b44888a55eb39755c3d5ed8d8ea990912aa3ef29c686620001cc565b620000e7600080516020620027aa83398151915286620001cc565b62000102600080516020620027aa83398151915285620001cc565b6200012e7f65d7a28e3265b37a6474929f336521b332c1681b933f6cb9f3376673440d862a85620001cc565b6001600160a01b038581166000908152600860205260408082208054600160ff19918216811790925588851684528284208054821683179055938716835290822080549093161790915560646200018784601e62000823565b6200019391906200083d565b90506000620001a3828562000860565b9050620001b1878362000257565b620001bd868262000257565b5050505050505050506200088c565b620001d882826200032c565b620002535760008281526005602090815260408083206001600160a01b03851684529091529020805460ff19166001179055620002123390565b6001600160a01b0316816001600160a01b0316837f2f8788117e7eff1d82e926ec794901d17c78024a50270940304540a733656f0d60405160405180910390a45b5050565b6001600160a01b038216620002b35760405162461bcd60e51b815260206004820152601f60248201527f45524332303a206d696e7420746f20746865207a65726f20616464726573730060448201526064015b60405180910390fd5b620002c16000838362000359565b8060026000828254620002d5919062000876565b90915550506001600160a01b038216600081815260208181526040808320805486019055518481527fddf252ad1be2c89b69c2b068fc378daa952ba7f163c4a11628f55a4df523b3ef910160405180910390a35050565b60008281526005602090815260408083206001600160a01b038516845290915290205460ff165b92915050565b62000363620004d2565b6001600160a01b03831660009081526009602052604090205460ff16158015620003a657506001600160a01b03821660009081526009602052604090205460ff16155b620003f45760405162461bcd60e51b815260206004820152601660248201527f4164647265737320697320626c61636b6c6973746564000000000000000000006044820152606401620002aa565b600a5460ff1680156200040f57506001600160a01b03831615155b80156200042457506001600160a01b03821615155b15620004cd576001600160a01b03831660009081526008602052604090205460ff16806200046a57506001600160a01b03821660009081526008602052604090205460ff165b620004cd5760405162461bcd60e51b815260206004820152602c60248201527f5472616e73666572207265737472696374656420746f2077686974656c69737460448201526b65642061646472657373657360a01b6064820152608401620002aa565b505050565b60065460ff16156200051a5760405162461bcd60e51b815260206004820152601060248201526f14185d5cd8589b194e881c185d5cd95960821b6044820152606401620002aa565b565b634e487b7160e01b600052604160045260246000fd5b600082601f8301126200054457600080fd5b81516001600160401b03808211156200056157620005616200051c565b604051601f8301601f19908116603f011681019082821181831017156200058c576200058c6200051c565b81604052838152602092508683858801011115620005a957600080fd5b600091505b83821015620005cd5785820183015181830184015290820190620005ae565b600093810190920192909252949350505050565b80516001600160a01b0381168114620005f957600080fd5b919050565b600080600080600080600060e0888a0312156200061a57600080fd5b87516001600160401b03808211156200063257600080fd5b620006408b838c0162000532565b985060208a01519150808211156200065757600080fd5b50620006668a828b0162000532565b9650506200067760408901620005e1565b94506200068760608901620005e1565b93506200069760808901620005e1565b925060a0880151915060c0880151905092959891949750929550565b600181811c90821680620006c857607f821691505b602082108103620006e957634e487b7160e01b600052602260045260246000fd5b50919050565b601f821115620004cd57600081815260208120601f850160051c81016020861015620007185750805b601f850160051c820191505b81811015620007395782815560010162000724565b505050505050565b81516001600160401b038111156200075d576200075d6200051c565b62000775816200076e8454620006b3565b84620006ef565b602080601f831160018114620007ad5760008415620007945750858301515b600019600386901b1c1916600185901b17855562000739565b600085815260208120601f198616915b82811015620007de57888601518255948401946001909101908401620007bd565b5085821015620007fd5787850151600019600388901b60f8161c191681555b5050505050600190811b01905550565b634e487b7160e01b600052601160045260246000fd5b80820281158282048414176200035357620003536200080d565b6000826200085b57634e487b7160e01b600052601260045260246000fd5b500490565b818103818111156200035357620003536200080d565b808201808211156200035357620003536200080d565b60805160a05160c05160e051611ec1620008e96000396000818161057d0152818161071d01528181610b720152610e0d015260006103610152600081816105430152610b070152600081816103a80152610dea0152611ec16000f3fe608060405234801561001057600080fd5b50600436106102345760003560e01c806370a0823111610131578063a457c2d7116100b3578063a457c2d7146104e8578063a9059cbb146104fb578063a966a0df1461050e578063abb1dc4414610523578063c45a01551461053e578063d547741f14610565578063d5abeb0114610578578063dd62ed3e1461059f578063e01af92c146105b2578063e63ab1e9146105c5578063f9f92be4146105da57600080fd5b806370a08231146104105780637295ed931461043957806379cc67901461044e57806379d610f3146104615780637a35eb66146104745780638456cb59146104875780639155e0831461048f57806391d14854146104a257806395d89b41146104b55780639b19251a146104bd578063a217fddf146104e057600080fd5b806336568abe116101ba57806336568abe1461032e57806339509351146103415780633f4ba83a146103545780633fc15f151461035c57806342966c681461039057806343bc1612146103a357806348709a93146103ca5780635c0ef3fa146103d75780635c975abb146103ea578063698518e5146103f55780636ddd1713146103fe57600080fd5b806301ffc9a71461023957806306fdde0314610261578063095ea7b3146102765780630d2a27b6146102895780630d392cd91461029e5780630d659ec5146102b157806318160ddd146102c457806323b872dd146102d6578063248a9ca3146102e95780632f2ff15d1461030c578063313ce5671461031f575b600080fd5b61024c610247366004611985565b6105fd565b60405190151581526020015b60405180910390f35b610269610634565b60405161025891906119ff565b61024c610284366004611a2e565b6106c6565b61029c610297366004611a2e565b6106de565b005b61029c6102ac366004611a68565b6107e0565b61029c6102bf366004611a9b565b610859565b6002545b604051908152602001610258565b61024c6102e4366004611ab6565b6108d5565b6102c86102f7366004611af2565b60009081526005602052604090206001015490565b61029c61031a366004611b0b565b6108f9565b60405160128152602001610258565b61029c61033c366004611b0b565b610923565b61024c61034f366004611a2e565b61099d565b61029c6109bf565b6103837f000000000000000000000000000000000000000000000000000000000000000081565b6040516102589190611b2e565b61029c61039e366004611af2565b6109e2565b6103837f000000000000000000000000000000000000000000000000000000000000000081565b600a5461024c9060ff1681565b61029c6103e5366004611b42565b6109ec565b60065460ff1661024c565b6102c860075481565b600a5461024c90610100900460ff1681565b6102c861041e366004611bc6565b6001600160a01b031660009081526020819052604090205490565b6102c8600080516020611e2c83398151915281565b61029c61045c366004611a2e565b610ae7565b61029c61046f366004611a2e565b610afc565b61029c610482366004611af2565b610bc3565b61029c610c7c565b61029c61049d366004611a68565b610c9c565b61024c6104b0366004611b0b565b610cff565b610269610d2a565b61024c6104cb366004611bc6565b60086020526000908152604090205460ff1681565b6102c8600081565b61024c6104f6366004611a2e565b610d39565b61024c610509366004611a2e565b610db4565b6102c8600080516020611e0c83398151915281565b61052b610dc2565b6040516102589796959493929190611be1565b6103837f000000000000000000000000000000000000000000000000000000000000000081565b61029c610573366004611b0b565b610e46565b6102c87f000000000000000000000000000000000000000000000000000000000000000081565b6102c86105ad366004611c3e565b610e6b565b61029c6105c0366004611a9b565b610e96565b6102c8600080516020611e4c83398151915281565b61024c6105e8366004611bc6565b60096020526000908152604090205460ff1681565b60006001600160e01b03198216637965db0b60e01b148061062e57506301ffc9a760e01b6001600160e01b03198316145b92915050565b60606003805461064390611c68565b80601f016020809104026020016040519081016040528092919081815260200182805461066f90611c68565b80156106bc5780601f10610691576101008083540402835291602001916106bc565b820191906000526020600020905b81548152906001019060200180831161069f57829003601f168201915b5050505050905090565b6000336106d4818585610ee4565b5060019392505050565b6106f6600080516020611e0c83398151915233610cff565b61071b5760405162461bcd60e51b815260040161071290611ca2565b60405180910390fd5b7f00000000000000000000000000000000000000000000000000000000000000008161074660025490565b6107509190611cea565b111561076e5760405162461bcd60e51b815260040161071290611cfd565b6001600160a01b03821660009081526008602052604090205460ff166107d25760405162461bcd60e51b8152602060048201526019602482015278149958da5c1a595b9d081b9bdd081dda1a5d195b1a5cdd1959603a1b6044820152606401610712565b6107dc8282611008565b5050565b600080516020611e2c8339815191526107f8816110c1565b6001600160a01b038316600081815260086020908152604091829020805460ff191686151590811790915591519182527ff93f9a76c1bf3444d22400a00cb9fe990e6abe9dbb333fda48859cfee864543d91015b60405180910390a2505050565b610871600080516020611e0c83398151915233610cff565b61088d5760405162461bcd60e51b815260040161071290611ca2565b600a805460ff19168215159081179091556040519081527f2da74f794b62c41386dee79743b63d866355e0e0ae2a8d97aacb2ff5b7e1549b906020015b60405180910390a150565b6000336108e38582856110cb565b6108ee858585611145565b506001949350505050565b600082815260056020526040902060010154610914816110c1565b61091e83836112e2565b505050565b6001600160a01b03811633146109935760405162461bcd60e51b815260206004820152602f60248201527f416363657373436f6e74726f6c3a2063616e206f6e6c792072656e6f756e636560448201526e103937b632b9903337b91039b2b63360891b6064820152608401610712565b6107dc8282611368565b6000336106d48185856109b08383610e6b565b6109ba9190611cea565b610ee4565b600080516020611e4c8339815191526109d7816110c1565b6109df6113cf565b50565b6109df338261141b565b600080516020611e2c833981519152610a04816110c1565b60005b83811015610ae0578260086000878785818110610a2657610a26611d29565b9050602002016020810190610a3b9190611bc6565b6001600160a01b031681526020810191909152604001600020805460ff1916911515919091179055848482818110610a7557610a75611d29565b9050602002016020810190610a8a9190611bc6565b6001600160a01b03167ff93f9a76c1bf3444d22400a00cb9fe990e6abe9dbb333fda48859cfee864543d84604051610ac6911515815260200190565b60405180910390a280610ad881611d3f565b915050610a07565b5050505050565b610af28233836110cb565b6107dc828261141b565b336001600160a01b037f00000000000000000000000000000000000000000000000000000000000000001614610b705760405162461bcd60e51b815260206004820152601960248201527843616c6c6572206973206e6f742074686520666163746f727960381b6044820152606401610712565b7f000000000000000000000000000000000000000000000000000000000000000081610b9b60025490565b610ba59190611cea565b11156107d25760405162461bcd60e51b815260040161071290611cfd565b610bdb600080516020611e0c83398151915233610cff565b610bf75760405162461bcd60e51b815260040161071290611ca2565b60008111610c475760405162461bcd60e51b815260206004820181905260248201527f537761702072617465206d7573742062652067726561746572207468616e20306044820152606401610712565b60078190556040518181527ff584b4d4eaa9e0a1cf7138a770082b7f4d5919d88744de231372f8751f957e7f906020016108ca565b600080516020611e4c833981519152610c94816110c1565b6109df611547565b6000610ca7816110c1565b6001600160a01b038316600081815260096020908152604091829020805460ff191686151590811790915591519182527f6a12b3df6cba4203bd7fd06b816789f87de8c594299aed5717ae070fac781bac910161084c565b60009182526005602090815260408084206001600160a01b0393909316845291905290205460ff1690565b60606004805461064390611c68565b60003381610d478286610e6b565b905083811015610da75760405162461bcd60e51b815260206004820152602560248201527f45524332303a2064656372656173656420616c6c6f77616e63652062656c6f77604482015264207a65726f60d81b6064820152608401610712565b6108ee8286868403610ee4565b6000336106d4818585611145565b6060806000806000806000610dd5610634565b610ddd610d2a565b600754600a54929a9199507f000000000000000000000000000000000000000000000000000000000000000098507f00000000000000000000000000000000000000000000000000000000000000009750955060ff808316955061010090920490911692509050565b600082815260056020526040902060010154610e61816110c1565b61091e8383611368565b6001600160a01b03918216600090815260016020908152604080832093909416825291909152205490565b610eae600080516020611e0c83398151915233610cff565b610eca5760405162461bcd60e51b815260040161071290611ca2565b600a80549115156101000261ff0019909216919091179055565b6001600160a01b038316610f465760405162461bcd60e51b8152602060048201526024808201527f45524332303a20617070726f76652066726f6d20746865207a65726f206164646044820152637265737360e01b6064820152608401610712565b6001600160a01b038216610fa75760405162461bcd60e51b815260206004820152602260248201527f45524332303a20617070726f766520746f20746865207a65726f206164647265604482015261737360f01b6064820152608401610712565b6001600160a01b0383811660008181526001602090815260408083209487168084529482529182902085905590518481527f8c5be1e5ebec7d5bd14f71427d1e84f3dd0314c0f7b2291e5b200ac8c7c3b925910160405180910390a3505050565b6001600160a01b03821661105e5760405162461bcd60e51b815260206004820152601f60248201527f45524332303a206d696e7420746f20746865207a65726f2061646472657373006044820152606401610712565b61106a60008383611584565b806002600082825461107c9190611cea565b90915550506001600160a01b03821660008181526020818152604080832080548601905551848152600080516020611e6c833981519152910160405180910390a35050565b6109df81336116e6565b60006110d78484610e6b565b9050600019811461113f57818110156111325760405162461bcd60e51b815260206004820152601d60248201527f45524332303a20696e73756666696369656e7420616c6c6f77616e63650000006044820152606401610712565b61113f8484848403610ee4565b50505050565b6001600160a01b0383166111a95760405162461bcd60e51b815260206004820152602560248201527f45524332303a207472616e736665722066726f6d20746865207a65726f206164604482015264647265737360d81b6064820152608401610712565b6001600160a01b03821661120b5760405162461bcd60e51b815260206004820152602360248201527f45524332303a207472616e7366657220746f20746865207a65726f206164647260448201526265737360e81b6064820152608401610712565b611216838383611584565b6001600160a01b0383166000908152602081905260409020548181101561128e5760405162461bcd60e51b815260206004820152602660248201527f45524332303a207472616e7366657220616d6f756e7420657863656564732062604482015265616c616e636560d01b6064820152608401610712565b6001600160a01b0384811660008181526020818152604080832087870390559387168083529184902080548701905592518581529092600080516020611e6c833981519152910160405180910390a361113f565b6112ec8282610cff565b6107dc5760008281526005602090815260408083206001600160a01b03851684529091529020805460ff191660011790556113243390565b6001600160a01b0316816001600160a01b0316837f2f8788117e7eff1d82e926ec794901d17c78024a50270940304540a733656f0d60405160405180910390a45050565b6113728282610cff565b156107dc5760008281526005602090815260408083206001600160a01b0385168085529252808320805460ff1916905551339285917ff6391f5c32d9c69d2a47ea670b442974b53935d1edc7fd64eb21e047a839171b9190a45050565b6113d761173f565b6006805460ff191690557f5db9ee0a495bf2e6ff9c91a7834c1ba4fdd244a5e8aa4e537bd38aeae4b073aa335b6040516114119190611b2e565b60405180910390a1565b6001600160a01b03821661147b5760405162461bcd60e51b815260206004820152602160248201527f45524332303a206275726e2066726f6d20746865207a65726f206164647265736044820152607360f81b6064820152608401610712565b61148782600083611584565b6001600160a01b038216600090815260208190526040902054818110156114fb5760405162461bcd60e51b815260206004820152602260248201527f45524332303a206275726e20616d6f756e7420657863656564732062616c616e604482015261636560f01b6064820152608401610712565b6001600160a01b038316600081815260208181526040808320868603905560028054879003905551858152919291600080516020611e6c833981519152910160405180910390a3505050565b61154f61178a565b6006805460ff191660011790557f62e78cea01bee320cd4e420270b5ea74000d11b0c9f74754ebdbfc544b05a2586114043390565b61158c61178a565b6001600160a01b03831660009081526009602052604090205460ff161580156115ce57506001600160a01b03821660009081526009602052604090205460ff16155b6116135760405162461bcd60e51b81526020600482015260166024820152751059191c995cdcc81a5cc8189b1858dadb1a5cdd195960521b6044820152606401610712565b600a5460ff16801561162d57506001600160a01b03831615155b801561164157506001600160a01b03821615155b1561091e576001600160a01b03831660009081526008602052604090205460ff168061168557506001600160a01b03821660009081526008602052604090205460ff165b61091e5760405162461bcd60e51b815260206004820152602c60248201527f5472616e73666572207265737472696374656420746f2077686974656c69737460448201526b65642061646472657373657360a01b6064820152608401610712565b6116f08282610cff565b6107dc576116fd816117d0565b6117088360206117e2565b604051602001611719929190611d58565b60408051601f198184030181529082905262461bcd60e51b8252610712916004016119ff565b60065460ff166117885760405162461bcd60e51b815260206004820152601460248201527314185d5cd8589b194e881b9bdd081c185d5cd95960621b6044820152606401610712565b565b60065460ff16156117885760405162461bcd60e51b815260206004820152601060248201526f14185d5cd8589b194e881c185d5cd95960821b6044820152606401610712565b606061062e6001600160a01b03831660145b606060006117f1836002611dc7565b6117fc906002611cea565b67ffffffffffffffff81111561181457611814611dde565b6040519080825280601f01601f19166020018201604052801561183e576020820181803683370190505b509050600360fc1b8160008151811061185957611859611d29565b60200101906001600160f81b031916908160001a905350600f60fb1b8160018151811061188857611888611d29565b60200101906001600160f81b031916908160001a90535060006118ac846002611dc7565b6118b7906001611cea565b90505b600181111561192f576f181899199a1a9b1b9c1cb0b131b232b360811b85600f16601081106118eb576118eb611d29565b1a60f81b82828151811061190157611901611d29565b60200101906001600160f81b031916908160001a90535060049490941c9361192881611df4565b90506118ba565b50831561197e5760405162461bcd60e51b815260206004820181905260248201527f537472696e67733a20686578206c656e67746820696e73756666696369656e746044820152606401610712565b9392505050565b60006020828403121561199757600080fd5b81356001600160e01b03198116811461197e57600080fd5b60005b838110156119ca5781810151838201526020016119b2565b50506000910152565b600081518084526119eb8160208601602086016119af565b601f01601f19169290920160200192915050565b60208152600061197e60208301846119d3565b80356001600160a01b0381168114611a2957600080fd5b919050565b60008060408385031215611a4157600080fd5b611a4a83611a12565b946020939093013593505050565b80358015158114611a2957600080fd5b60008060408385031215611a7b57600080fd5b611a8483611a12565b9150611a9260208401611a58565b90509250929050565b600060208284031215611aad57600080fd5b61197e82611a58565b600080600060608486031215611acb57600080fd5b611ad484611a12565b9250611ae260208501611a12565b9150604084013590509250925092565b600060208284031215611b0457600080fd5b5035919050565b60008060408385031215611b1e57600080fd5b82359150611a9260208401611a12565b6001600160a01b0391909116815260200190565b600080600060408486031215611b5757600080fd5b833567ffffffffffffffff80821115611b6f57600080fd5b818601915086601f830112611b8357600080fd5b813581811115611b9257600080fd5b8760208260051b8501011115611ba757600080fd5b602092830195509350611bbd9186019050611a58565b90509250925092565b600060208284031215611bd857600080fd5b61197e82611a12565b60e081526000611bf460e083018a6119d3565b8281036020840152611c06818a6119d3565b6001600160a01b03989098166040840152505060608101949094526080840192909252151560a0830152151560c09091015292915050565b60008060408385031215611c5157600080fd5b611c5a83611a12565b9150611a9260208401611a12565b600181811c90821680611c7c57607f821691505b602082108103611c9c57634e487b7160e01b600052602260045260246000fd5b50919050565b60208082526018908201527710d85b1b195c881a5cc81b9bdd081d1a1948185c9d1a5cdd60421b604082015260600190565b634e487b7160e01b600052601160045260246000fd5b8082018082111561062e5761062e611cd4565b60208082526012908201527145786365656473206d617820737570706c7960701b604082015260600190565b634e487b7160e01b600052603260045260246000fd5b600060018201611d5157611d51611cd4565b5060010190565b76020b1b1b2b9b9a1b7b73a3937b61d1030b1b1b7bab73a1604d1b815260008351611d8a8160178501602088016119af565b7001034b99036b4b9b9b4b733903937b6329607d1b6017918401918201528351611dbb8160288401602088016119af565b01602801949350505050565b808202811582820484141761062e5761062e611cd4565b634e487b7160e01b600052604160045260246000fd5b600081611e0357611e03611cd4565b50600019019056fe877a78dc988c0ec5f58453b44888a55eb39755c3d5ed8d8ea990912aa3ef29c62a3dab589bcc9747970dd85ac3f222668741ae51f2a1bbb8f8355be28dd8a86865d7a28e3265b37a6474929f336521b332c1681b933f6cb9f3376673440d862addf252ad1be2c89b69c2b068fc378daa952ba7f163c4a11628f55a4df523b3efa26469706673582212201cb7477b5e8567d09f5c06c38e1cd06d348eb8a087cfa99fb33a992c476df4b164736f6c634300081300332a3dab589bcc9747970dd85ac3f222668741ae51f2a1bbb8f8355be28dd8a868",
  "linkReferences": {},
  "deployedLinkReferences": {}
}